:100000000C9434000C9472000C9472000C947200E6
:100010000C9472000C9472000C9472000C94720098
:100020000C9472000C9472000C9472000C94720088
:100030000C9472000C9472000C9472000C94720078
:100040000C9472000C9472000C9472000C94720068
:100050000C9472000C9472000C9472000C94720058
:100060000C9472000C94720011241FBECFEFD8E0E4
:10007000DEBFCDBF0E9440000C946000F894FFCF1B
:100080000E946B008AB182608AB90E945200873751
:10009000924020F08BB182608BB9F7CF8BB18D7F0E
:0400A0008BB9F3CF56
:1000A400EAE7F0E080818064808380917A0086FDB5
:0C00B400FCCF80917800909179000895B5
:1000C000EC010E9477000E947600CE010E94780029
:0600D000CE010E94740045
:0E00D60080E480937C0087E880937A00089590
:0400E4000C94000078
:0400E8000E943E0034
:0200EC00089575
:0200EE00089573
:0200F000089571
:00000001FF
