:100000000C9434000C9461000C9461000C94610019
:100010000C9461000C9461000C9461000C946100DC
:100020000C9461000C9461000C9461000C946100CC
:100030000C9461000C9461000C9461000C946100BC
:100040000C9461000C9461000C9461000C946100AC
:100050000C9461000C9461000C9461000C9461009C
:100060000C9461000C94610011241FBECFEFD8E006
:10007000DEBFCDBF0E9440000C944C00F894FFCF2F
:1000800084B18E6184B985B18A6085B90E945700B8
:080090008FEF87BD88BDFFCF93
:10009800EC010E9466000E946500CE010E94670084
:0600A800CE010E9463007E
:1000AE0084B5836A84BD85B5826085BD8AB180665C
:0400BE008AB908955E
:0400C2000C9400009A
:0400C6000E943E0056
:0200CA00089597
:0200CC00089595
:0200CE00089593
:00000001FF
