:100000000C9434000C9487000C9487000C948700A7
:100010000C9487000C9487000C9487000C94870044
:100020000C9487000C9487000C9487000C94870034
:100030000C9487000C9487000C9487000C94870024
:100040000C9487000C9487000C9487000C94870014
:100050000C9487000C9487000C9487000C94870004
:100060000C9487000C94870011241FBECFEFD8E0BA
:10007000DEBFCDBFE8E6F0E040E017C0B591A59146
:1000800035912591059107FD0CC095918591EF0162
:10009000F92FE82F05900D92A217B307D9F7FE01AB
:1000A00004C01D92A217B307E1F7E836F40731F751
:0C00B0000E945E000C947200F894FFCFD8
:1000BC008AB11AB88AB184608AB98AB180618AB966
:1000CC008AB11AB884B18E6184B90E947D008BB15B
:0800DC001BB88BB11BB8FBCF70
:1000E400EC010E948C000E948B00CE010E948D00C6
:0600F400CE010E9489000C
:1000FA0084B5836A84BD85B5826085BD8AB1806610
:04010A008AB9089511
:04010E000C9400004D
:040112000E945C00EB
:0201160008954A
:02011800089548
:02011A00089546
:00000001FF
