:100000000C9438000C9474010C9474010C947401D9
:100010000C9474010C9474010C9474010C9474018C
:100020000C9474010C9474010C9474010C9474017C
:100030000C9474010C9474010C9474010C9474016C
:100040000C9474010C9474010C9474010C9474015C
:100050000C9474010C9474010C9474010C9474014C
:100060000C9474010C947401010001400002F6002C
:1000700011241FBECFEFD8E0DEBFCDBFE8E6F0E031
:1000800040E017C0B591A59135912591059107FDE7
:100090000CC095918591EF01F92FE82F05900D92F5
:1000A000A217B307D9F7FE0104C01D92A217B30728
:1000B000E1F7EF36F40731F70E944C010C94690127
:0400C000F894FFCFE2
:1000C400CF93DF93CDB7DEB7A0970FB6F894DEBF1A
:1000D4000FBECDBF20E2E0E0F1E0DE011196019019
:1000E4000D922A95E1F720E030E052C0FC01EE0FBA
:1000F400FF1FEE0FFF1FE20FF31FEE0FFF1F41E084
:1001040050E04C0F5D1FE40FF51F40815181452BDA
:10011400F9F02130310581F024F42115310541F045
:1001240035C02230310561F02330310569F02EC02D
:1001340045B1416045B92AC045B1426045B926C0C0
:1001440045B1446045B922C045B1486045B91EC0B7
:100154002130310581F024F42115310541F016C018
:100164002230310561F02330310569F00FC045B10B
:100174004E7F45B90BC045B14D7F45B907C045B168
:100184004B7F45B903C045B1477F45B92F5F3F4F0A
:10019400243031050CF4AACFA0960FB6F894DEBF34
:0A01A4000FBECDBFDF91CF9108958B
:1001AE00CF93DF93CDB7DEB7A0970FB6F894DEBF2F
:1001BE000FBECDBF20E2E0E2F1E0DE01119601902C
:1001CE000D922A95E1F720E030E052C0FC01EE0FCF
:1001DE00FF1FEE0FFF1FE20FF31FEE0FFF1F41E099
:1001EE0050E04C0F5D1FE40FF51F40815181452BF0
:1001FE00F9F02130310581F024F42115310541F05B
:10020E0035C02230310561F02330310569F02EC042
:10021E004BB144604BB92AC04BB148604BB926C0B4
:10022E004BB140614BB922C04BB140624BB91EC0BD
:10023E002130310581F024F42115310541F016C02D
:10024E002230310561F02330310569F00FC04BB11A
:10025E004B7F4BB90BC04BB1477F4BB907C04BB16E
:10026E004F7E4BB903C04BB14F7D4BB92F5F3F4F04
:10027E00243031050CF4AACFA0960FB6F894DEBF49
:0A028E000FBECDBFDF91CF910895A0
:1002980084B18F6084B98AB18C638AB9C0E0D0E038
:1002A80010C0CE010E946200CE010E94D7002FE349
:1002B8008DE093E0215080409040E1F700C00000BD
:0A02C8002196C430D1056CF3E9CF94
:1002D200EC010E9479010E947801CE010E947A010C
:0602E200CE010E9476012E
:0402E8000C94000072
:0402EC000E9460000C
:0202F00008956F
:0202F20008956D
:0202F40008956B
:1002F60001000000000000000000010000000000F6
:1003060000000000010000000000000000000100E5
:1003160001000000010000000100000000000100D3
:1003260000000100000001000000010001000000C3
:00000001FF
