:100000000C9437000C9461000C94C7010C946D02A1
:100010000C946D020C946D020C946D020C946D02A4
:100020000C946D020C946D020C946D020C946D0294
:100030000C946D020C946D020C946D020C946D0284
:100040000C946D020C946D020C946D020C946D0274
:100050000C946D020C946D020C946D020C946D0264
:100060000C946D020C946D020100010380001124B8
:100070001FBECFEFD8E0DEBFCDBFE8E6F0E040E046
:1000800017C0B591A59135912591059107FD0CC03B
:1000900095918591EF01F92FE82F05900D92A21708
:1000A000B307D9F7FE0104C01D92A217B307E1F709
:1000B000ED36F40731F70E9406020C945B02F894C7
:0200C000FFCF70
:1000C2001F920F920FB60F9211242F933F934F93CB
:1000D2005F936F937F938F939F93AF93BF93EF93AE
:1000E200FF932FE38DE093E0215080409040E1F7B1
:1000F20000C000008091000190910101019665E02D
:1001020070E00E941B029093010180930001809194
:100112000001909101018230910509F458C02CF43C
:10012200009759F0019771F1C6C08330910509F427
:1001320073C0049709F495C0BEC081E30E946602B1
:100142008AE30E94660280E20E94660284E40E94C0
:10015200660289E60E94660282E60E94660285E7DE
:100162000E9466028AE60E9466028FE60E9466028A
:1001720080E20E94660281E30E9466028AE00E9497
:10018200660299C082E30E9466028AE30E946602C6
:1001920080E20E94660284E40E94660289E60E946E
:1001A200660282E60E94660285E70E9466028AE68D
:1001B2000E9466028FE60E94660280E20E94660248
:1001C20082E30E9466028AE00E94660274C083E3B0
:1001D2000E9466028AE30E94660280E20E94660230
:1001E20084E40E94660289E60E94660282E60E9418
:1001F200660285E70E9466028AE60E9466028FE630
:100202000E94660280E20E94660283E30E94660206
:100212008AE00E9466024FC084E30E9466028AE37B
:100222000E94660280E20E94660284E40E946602E4
:1002320089E60E94660282E60E94660285E70E94C3
:1002420066028AE60E9466028FE60E94660280E2E9
:100252000E94660284E30E9466028AE00E946602AD
:100262002AC084E30E9466028AE30E94660280E258
:100272000E9466028DE40E9466028FE60E94660278
:1002820084E60E9466028FE60E94660280E20E9475
:1002920066028CE60E94660289E60E94660282E697
:1002A2000E94660282E70E94660285E60E9466025A
:1002B2008AE00E946602FF91EF91BF91AF919F91F8
:1002C2008F917F916F915F914F913F912F910F90FD
:0802D2000FBE0F901F9018955C
:1002DA0080910201833049F128F4813041F0823063
:1002EA00A9F00895843081F18530E9F1089581E318
:1002FA000E94660285E60E94660286E60E946602FF
:10030A008AE00E94660210920201089582E30E9426
:10031A00660285E60E94660286E60E9466028AE016
:10032A000E94660210920201089583E30E94660207
:10033A0085E60E94660286E60E9466028AE00E94BC
:10034A00660210920201089584E30E94660285E61D
:10035A000E94660286E60E9466028AE00E9466029F
:10036A001092020108958CE60E94660285E60E94B8
:10037A0066028CE60E9466028AE00E946602109279
:04038A0002010895CF
:10038E001F920F920FB60F9211242F938F939F935C
:10039E002FE38DE093E0215080409040E1F700C0C4
:1003AE000000809100019091010182309105A1F031
:1003BE002CF4009749F0019759F019C0833091053C
:1003CE0079F0049789F013C081E0809302010FC089
:1003DE0082E0809302010BC083E08093020107C08C
:1003EE0084E08093020103C085E0809302019F9117
:0E03FE008F912F910F900FBE0F901F901895AA
:10040C0084B18F6084B98AB1806F8AB98AB1837FD5
:10041C008AB90E94430284B1806184B987E690E076
:0A042C000E9450020E946D01FDCFF6
:1004360097FB072E16F4009407D077FD09D00E948B
:100446002F0207FC05D03EF4909581959F4F0895A5
:08045600709561957F4F089538
:10045E00AA1BBB1B51E107C0AA1FBB1FA617B707DC
:10046E0010F0A61BB70B881F991F5A95A9F78095F8
:08047E009095BC01CD01089529
:10048600E9E6F0E0808182608083808188608083F5
:0A0496008DB383608DBB7894089548
:1004A0009093C5008093C40088E18093C1008EE0E2
:0604B0008093C2000895D4
:1004B600EC010E9472020E947102CE010E94730238
:0604C600CE010E946F024E
:0E04CC009091C00095FFFCCF8093C60008956C
:0404DA000C9400007E
:0404DE000E945F0019
:0204E20008957B
:0204E400089579
:0204E600089577
:00000001FF
