:100000000C943A000C94AC010C94D7010C941A0295
:100010000C941A020C941A020C941A020C941A02F0
:100020000C941A020C941A020C941A020C941A02E0
:100030000C941A020C941A020C941A020C941A02D0
:100040000C941A020C941A020C941A020C941A02C0
:100050000C941A020C941A020C941A020C941A02B0
:100060000C941A020C941A0201000180000442014F
:100070008001848011241FBECFEFD8E0DEBFCDBF4A
:10008000E8E6F0E040E017C0B591A59135912591E3
:10009000059107FD0CC095918591EF01F92FE82F8F
:1000A00005900D92A217B307D9F7FE0104C01D9267
:1000B000A217B307E1F7E437F40731F70E945201C2
:0800C0000C940F02F894FFCF2D
:1000C800CF93DF93CDB7DEB7C054D1090FB6F894FC
:1000D800DEBF0FBECDBF20E4E0E0F1E0DE01119607
:1000E80001900D922A95E1F720E030E052C0FC0122
:1000F800EE0FFF1FEE0FFF1FE20FF31FEE0FFF1FA4
:1001080041E050E04C0F5D1FE40FF51F4081518125
:10011800452BF9F02130310581F024F42115310502
:1001280041F035C02230310561F02330310569F0E6
:100138002EC045B1416045B92AC045B1426045B9B4
:1001480026C045B1446045B922C045B1486045B9AB
:100158001EC02130310581F024F42115310541F00C
:1001680016C02230310561F02330310569F00FC027
:1001780045B14E7F45B90BC045B14D7F45B907C064
:1001880045B14B7F45B903C045B1477F45B92F5F9E
:100198003F4F243031050CF4AACFC05CDF4F0FB6B7
:0E01A800F894DEBF0FBECDBFDF91CF9108955A
:1001B600CF93DF93CDB7DEB7C054D1090FB6F8940D
:1001C600DEBF0FBECDBF20E4E0E4F1E0DE01119614
:1001D60001900D922A95E1F720E030E052C0FC0133
:1001E600EE0FFF1FEE0FFF1FE20FF31FEE0FFF1FB5
:1001F60041E050E04C0F5D1FE40FF51F4081518137
:10020600452BF9F02130310581F024F42115310513
:1002160041F035C02230310561F02330310569F0F7
:100226002EC04BB140614BB92AC04BB140624BB9AD
:1002360026C04BB140644BB922C04BB140684BB9A4
:100246001EC02130310581F024F42115310541F01D
:1002560016C02230310561F02330310569F00FC038
:100266004BB14F7E4BB90BC04BB14F7D4BB907C05D
:100276004BB14F7B4BB903C04BB14F774BB92F5F97
:100286003F4F243031050CF4AACFC05CDF4F0FB6C8
:0E029600F894DEBF0FBECDBFDF91CF9108956B
:1002A40084B18F6084B98AB1806F8AB98AB1837F3F
:1002B4008AB90E94020284B1806184B913C0CE015C
:1002C4000E946400CE010E94DB0083ED90E301975D
:1002D400F1F700C00000219602C0C0E0D0E0C830B1
:1002E400D1056CF380918201909183010197A9F368
:1002F40085B1806185B99FE322E48FE0915020406D
:100304008040E1F700C0000085B18F7E85B99FE38E
:1003140022E48FE0915020408040E1F700C00000CB
:1003240012C0CE010E946400CE010E94DB0083ED66
:1003340090E30197F1F700C00000219702C0C8E0E4
:10034400D0E0DD2374F780918001909181010197C1
:04035400B1F3C8CF6A
:100358001F920F920FB60F9211248F939F938BE4E5
:100368009DE10197F1F700C0000080918201909112
:100378008301019729F4109283011092820106C02B
:1003880081E090E090938301809382018BE49DE16A
:100398000197F1F700C000009F918F910F900FBE59
:0603A8000F901F90189554
:1003AE001F920F920FB60F9211248F939F938BE48F
:1003BE009DE10197F1F700C00000809180019091BE
:1003CE008101019729F4109281011092800106C0DB
:1003DE0081E090E090938101809380018BE49DE118
:1003EE000197F1F700C000009F918F910F900FBE03
:0603FE000F901F901895FE
:10040400E9E6F0E080818260808380818860808377
:0A0414008DB383608DBB78940895CA
:10041E00EC010E941F020E941E02CE010E942002C9
:06042E00CE010E941C0239
:040434000C94000024
:040438000E946200BC
:02043C00089521
:02043E0008951F
:0204400008951D
:1004420000000000000001000000000001000100A7
:100452000000000001000000000001000100000097
:100462000000010000000000010001000000000087
:100472000100000000000000010000000000010077
:100482000100000000000000010001000000000067
:100492000000010000000000000001000100000057
:1004A2000000000001000000000000000100010047
:1004B2000000000000000100010000000000010037
:00000001FF
