:100000000C9440000C946D050C94C7070C94ED08FB
:100010000C94ED080C94ED080C94ED080C94ED088C
:100020000C94ED080C94ED080C94ED080C94ED087C
:100030000C94ED080C94ED080C94ED080C94ED086C
:100040000C94ED080C94ED080C94ED080C94ED085C
:100050000C94ED080C94ED080C94ED080C94ED084C
:100060000C94ED080C94ED08010001D20011E80198
:10007000D201DC8001DC01DE0012BA01DE01DF808A
:1000800011241FBECFEFD8E0DEBFCDBFE8E6F0E021
:1000900040E017C0B591A59135912591059107FDD7
:1000A0000CC095918591EF01F92FE82F05900D92E5
:1000B000A217B307D9F7FE0104C01D92A217B30718
:1000C000E1F7E038F40731F70E943B060C94D108C1
:0400D000F894FFCFD2
:1000D400CF93DF938091DE01833009F43FC130F484
:1000E400813059F0823009F456C0F2C4843009F4E6
:1000F4002AC2853009F4D0C4EBC41092DD011092F9
:10010400DC01C0E0D0E007C0FE01E057FE4F808173
:100114000E94E6082196CD30D105B4F385B1806103
:1001240085B919C0CE010E9450078BE792E9019767
:10013400F1F700C000008091D2019091D3010196A3
:100144009093D3018093D201219602C0C0E0D0E005
:10015400C830D1053CF38091D2019091D30184360B
:100164009105A0F31092DE0181E090E09093DD010F
:100174008093DC01C0E0D0E007C0FE01E159FE4FEE
:1001840080810E94E6082196C131D105B4F385B17E
:100194008F7E85B99DC41092DD011092DC01C0E010
:1001A400D0E007C0FE01E057FE4F80810E94E608C0
:1001B4002196CD30D105B4F385B1806185B919C0DC
:1001C400CE010E9450078BE792E90197F1F700C036
:1001D40000008091D2019091D30101969093D301B4
:1001E4008093D201219602C0C0E0D0E0C830D1058E
:1001F4003CF38091D2019091D30184369105A0F310
:100204001092D3011092D2019FED23E984E0915022
:1002140020408040E1F700C0000019C0CE010E94D8
:10022400D9068BE792E90197F1F700C000008091AD
:10023400D2019091D30101969093D3018093D2017E
:10024400219602C0C0E0D0E0C830D1053CF38091D3
:10025400D2019091D30184369105A0F31092D30179
:100264001092D2019FED23E984E091502040804018
:10027400E1F700C0000018C0CE010E9450078BE7D0
:1002840092E90197F1F700C000008091D2019091AA
:10029400D30101969093D3018093D201219702C098
:1002A400C8E0D0E0DD2344F78091D2019091D301DE
:1002B40084369105A8F31092D3011092D2019FEDD8
:1002C40023E984E0915020408040E1F700C0000021
:1002D40018C0CE010E9450078BE792E90197F1F70D
:1002E40000C000008091D2019091D30101969093B7
:1002F400D3018093D201219702C0C8E0D0E0DD236E
:1003040044F78091D2019091D30184369105A8F3EA
:100314001092D3011092D2019FED23E984E0915011
:1003240020408040E1F700C000001092DE0181E02F
:1003340090E09093DD018093DC01C0E0D0E007C041
:10034400FE01E159FE4F80810E94E6082196C131E9
:10035400D105B4F385B18F7E85B9BAC31092DD019E
:100364001092DC01C0E0D0E007C0FE01E057FE4F70
:1003740080810E94E6082196CD30D105B4F385B181
:10038400806185B91CC0CE010E94D906CE010E94AD
:1003940050078BE792E90197F1F700C000008091C4
:1003A400D2019091D30101969093D3018093D2010D
:1003B400219602C0C0E0D0E0C830D10524F380917A
:1003C400D2019091D30184369105A0F31092D30108
:1003D4001092D2019FED23E984E0915020408040A7
:1003E400E1F700C000001FC0CE010E94D90688E0DA
:1003F40090E08C1B9D0B0E9450078BE792E90197BC
:10040400F1F700C000008091D2019091D3010196D0
:100414009093D3018093D201219602C0C0E0D0E032
:10042400C830D1050CF38091D2019091D301843668
:100434009105A0F31092D3011092D2019FED23E90C
:1004440084E0915020408040E1F700C000001BC0D0
:10045400CE010E94D906CE010E9450078BE792E993
:100464000197F1F700C000008091D2019091D3016F
:1004740001969093D3018093D201219702C0C8E0E2
:10048400D0E0DD232CF78091D2019091D301843602
:100494009105A8F31092D3011092D2019FED23E9A4
:1004A40084E0915020408040E1F700C000001EC06D
:1004B400CE010E94D90688E090E08C1B9D0B0E941F
:1004C40050078BE792E90197F1F700C00000809193
:1004D400D2019091D30101969093D3018093D201DC
:1004E400219702C0C8E0D0E0DD2314F78091D20147
:1004F4009091D30184369105A8F31092D301109200
:10050400D2019FED23E984E0915020408040E1F73F
:1005140000C000001092DE0181E090E09093DD01C4
:100524008093DC01C0E0D0E007C0FE01E159FE4F3A
:1005340080810E94E6082196C131D105B4F385B1CA
:100544008F7E85B9C5C21092DD011092DC0187E06F
:1005540090E00E94D90687E090E00E94500780E175
:1005640090E00E943E0881E090E00E946E088BE0DB
:1005740090E00E943E0881E090E00E946E0888E0CE
:1005840090E00E943E0881E090E00E946E0887E0BF
:1005940090E00E943E0881E090E00E946E08C0E076
:1005A400D0E009C085E090E00E943E0881E090E040
:1005B4000E946E082196C330D105A4F3C0E0D0E0B8
:1005C40009C084E090E00E943E0881E090E00E942F
:1005D4006E082196C230D105A4F383E090E00E9416
:1005E4003E0881E090E00E946E0884E090E00E9462
:1005F4003E0881E090E00E946E08C0E0D0E009C0AF
:1006040083E090E00E943E0881E090E00E946E0842
:100614002196C530D105A4F3C0E0D0E011C082E03A
:1006240090E00E943E0881E090E00E946E0883E022
:1006340090E00E943E0881E090E00E946E082196BE
:10064400C230D10564F3C0E0D0E009C082E090E09C
:100654000E943E0881E090E00E946E082196C2301C
:10066400D105A4F383E090E00E943E0881E090E08D
:100674000E946E08C0E0D0E009C082E090E00E94D1
:100684003E0881E090E00E946E082196C830D105B2
:10069400A4F381E090E00E943E0881E090E00E9493
:1006A4006E08C0E0D0E009C082E090E00E943E08FD
:1006B40081E090E00E946E082196C330D105A4F336
:1006C40081E090E00E943E0881E090E00E946E0884
:1006D400C0E0D0E009C082E090E00E943E0881E0E2
:1006E40090E00E946E082196C230D105A4F3C0E0C8
:1006F400D0E011C081E090E00E943E0881E090E0EB
:100704000E946E0882E090E00E943E0881E090E042
:100714000E946E082196C530D10564F3C0E0D0E094
:1007240009C081E090E00E943E0881E090E00E94D0
:100734006E082196C230D105A4F382E090E00E94B5
:100744003E0881E090E00E946E08C0E0D0E009C05D
:1007540081E090E00E943E0881E090E00E946E08F3
:100764002196C230D105A4F382E090E00E943E08B5
:1007740081E090E00E946E08C0E0D0E009C081E012
:1007840090E00E943E0881E090E00E946E0821966D
:10079400C330D105A4F382E090E00E943E0881E0DA
:1007A40090E00E946E08C0E0D0E009C081E090E0D3
:1007B4000E943E0881E090E00E946E082196C630B7
:1007C400D105A4F382E090E00E943E0881E090E02D
:1007D4000E946E08C0E0D0E009C081E090E00E9471
:1007E4003E0881E090E00E946E082196C930D10550
:1007F400A4F3C0E0D0E009C081E090E00E946E085C
:1008040081E090E00E943E082196C930D105A4F30E
:1008140082E090E00E946E0881E090E00E943E0831
:10082400C0E0D0E009C081E090E00E946E0881E061
:1008340090E00E943E082196C630D105A4F382E0E0
:1008440090E00E946E0881E090E00E943E08C0E0C3
:10085400D0E009C081E090E00E946E0881E090E061
:100864000E943E082196C330D105A4F382E090E0B3
:100874000E946E0881E090E00E943E08C0E0D0E053
:1008840009C081E090E00E946E0881E090E00E943F
:100894003E082196C230D105A4F382E090E00E9484
:1008A4006E0881E090E00E943E08C0E0D0E009C0FC
:1008B40081E090E00E946E0881E090E00E943E0892
:1008C4002196C230D105A4F3C0E0D0E011C082E08B
:1008D40090E00E946E0881E090E00E943E0881E072
:1008E40090E00E946E0881E090E00E943E0821960C
:1008F400C530D10564F3C0E0D0E009C082E090E0E7
:100904000E946E0881E090E00E943E082196C23069
:10091400D105A4F381E090E00E946E0881E090E0AC
:100924000E943E08C0E0D0E009C082E090E00E944E
:100934006E0881E090E00E943E082196C330D10504
:10094400A4F381E090E00E946E0881E090E00E94B0
:100954003E08C0E0D0E009C082E090E00E946E084A
:1009640081E090E00E943E082196C830D105A4F3AE
:1009740083E090E00E946E0881E090E00E943E08CF
:10098400C0E0D0E009C082E090E00E946E0881E0FF
:1009940090E00E943E082196C230D105A4F3C0E045
:1009A400D0E011C083E090E00E946E0881E090E006
:1009B4000E943E0882E090E00E946E0881E090E090
:1009C4000E943E082196C230D10564F3C0E0D0E015
:1009D40009C083E090E00E946E0881E090E00E94EC
:1009E4003E082196C530D105A4F384E090E00E942E
:1009F4006E0881E090E00E943E0883E090E00E944F
:100A04006E0881E090E00E943E08C0E0D0E009C09A
:100A140084E090E00E946E0881E090E00E943E082D
:100A24002196C230D105A4F3C0E0D0E009C085E02E
:100A340090E00E946E0881E090E00E943E082196BA
:100A4400C330D105A4F387E090E00E946E0881E0F2
:100A540090E00E943E0888E090E00E946E0881E0E9
:100A640090E00E943E088BE090E00E946E0881E0D6
:100A740090E00E943E0880E190E00E946E0881E0D0
:100A840090E00E943E081092DE0181E090E0909395
:100A9400DD018093DC011CC01092DD011092DC01A9
:100AA40081E090E09093DB018093DA01C0E0D0E034
:100AB40007C0FE01E75AFE4F80810E94E608219696
:100AC400CC30D105B4F31092DE0185B1806185B9D3
:060AD400DF91CF910895AF
:100ADA001F920F920FB60F9211242F933F934F93A9
:100AEA005F936F937F938F939F93AF93BF93CF93AC
:100AFA00DF93EF93FF938091DC019091DD010197E1
:100B0A0009F078C02FE38DE093E0215080409040B7
:100B1A00E1F700C000008091D4019091D5010196BF
:100B2A0065E070E00E949E089093D5018093D401FD
:100B3A008091D4019091D5018230910589F12CF4EC
:100B4A00009791F00197F1F04CC083309105B1F113
:100B5A00049709F441C045C0FE01EB53FE4F808162
:100B6A000E94E608219602C0C0E0D0E0CC30D10550
:100B7A009CF337C0FE01E854FE4F80810E94E608CC
:100B8A00219602C0C0E0D0E0CC30D1059CF329C048
:100B9A00FE01E555FE4F80810E94E608219602C0BB
:100BAA00C0E0D0E0CC30D1059CF31BC0FE01E25678
:100BBA00FE4F80810E94E608219602C0C0E0D0E084
:100BCA00CC30D1059CF30DC0FE01EF57FE4F80815A
:100BDA000E94E608219602C0C0E0D0E0CE30D105DE
:100BEA009CF32FE38DE093E0215080409040E1F7A1
:100BFA0000C000008091DA019091DB01019719F59C
:100C0A002FE38DE093E0215080409040E1F700C04F
:100C1A0000008091D6019091D701019729F4109292
:100C2A00D7011092D60106C081E090E09093D701D7
:100C3A008093D6012FE38DE093E0215080409040CD
:100C4A00E1F700C00000FF91EF91DF91CF91BF91D2
:100C5A00AF919F918F917F916F915F914F913F914A
:0C0C6A002F910F900FBE0F901F90189557
:100C760084B18F6084B98AB1806F8AB98AB1837F63
:100C86008AB90E94DC0884B1806184B987E690E065
:100C96000E94C6088091DC019091DD01019711F454
:100CA6000E946A008091DA019091DB01019791F729
:100CB60038C08091D8019091D901019711F581E052
:100CC60090E09093DD018093DC011092DB0110929D
:100CD600DA011092D7011092D6011092D901109222
:100CE600D801C0E0D0E007C0FE01E05CFE4F808185
:100CF6000E94E6082196C831D105B4F385B18F7EEE
:100D060085B9C0E0D0E00AC0CE010E9450078BE74B
:100D160092E90197F1F700C000002196C830D1058D
:100D26009CF38091D6019091D701019711F237C0BB
:100D36008091D6019091D701019711F581E090E05D
:100D46009093DD018093DC011092DB011092DA01B1
:100D56001092D7011092D6011092D9011092D801A3
:100D6600C0E0D0E007C0FE01E05CFE4F80810E943B
:100D7600E6082196C831D105B4F385B18F7E85B9D1
:100D8600C8E0D0E00AC0CE010E9450078BE792E986
:100D96000197F1F700C000002197DD23A4F78091A9
:0C0DA600D8019091D901019719F274CF87
:100DB200CF93DF93CDB7DEB7C054D1090FB6F89405
:100DC200DEBF0FBECDBF20E4E0E0F1E0DE01119610
:100DD20001900D922A95E1F720E030E052C0FC012B
:100DE200EE0FFF1FEE0FFF1FE20FF31FEE0FFF1FAD
:100DF20041E050E04C0F5D1FE40FF51F408151812F
:100E0200452BF9F02130310581F024F4211531050B
:100E120041F035C02230310561F02330310569F0EF
:100E22002EC045B1416045B92AC045B1426045B9BD
:100E320026C045B1446045B922C045B1486045B9B4
:100E42001EC02130310581F024F42115310541F015
:100E520016C02230310561F02330310569F00FC030
:100E620045B14E7F45B90BC045B14D7F45B907C06D
:100E720045B14B7F45B903C045B1477F45B92F5FA7
:100E82003F4F243031050CF4AACFC05CDF4F0FB6C0
:0E0E9200F894DEBF0FBECDBFDF91CF91089563
:100EA000CF93DF93CDB7DEB7C054D1090FB6F89416
:100EB000DEBF0FBECDBF20E4E0E0F1E0DE01119621
:100EC00001900D922A95E1F720E030E052C0FC013C
:100ED000EE0FFF1FEE0FFF1FE20FF31FEE0FFF1FBE
:100EE00041E050E04C0F5D1FE40FF51F4081518140
:100EF000452BF9F02130310581F024F4211531051D
:100F000041F035C02230310561F02330310569F000
:100F10002EC04BB140614BB92AC04BB140624BB9B6
:100F200026C04BB140644BB922C04BB140684BB9AD
:100F30001EC02130310581F024F42115310541F026
:100F400016C02230310561F02330310569F00FC041
:100F50004BB14F7E4BB90BC04BB14F7D4BB907C066
:100F60004BB14F7B4BB903C04BB14F774BB92F5FA0
:100F70003F4F243031050CF4AACFC05CDF4F0FB6D1
:0E0F8000F894DEBF0FBECDBFDF91CF91089574
:100F8E001F920F920FB60F9211242F938F939F9350
:100F9E008091DC019091DD010197C1F52FE38DE089
:100FAE0093E0215080409040E1F700C00000809116
:100FBE00D4019091D50182309105A1F02CF40097C7
:100FCE0049F0019759F019C08330910579F00497D3
:100FDE0089F013C081E08093DE010FC082E0809320
:100FEE00DE010BC083E08093DE0107C084E08093B6
:100FFE00DE0103C085E08093DE012FE38DE093E0F8
:10100E00215080409040E1F700C000008091DA014D
:10101E009091DB01019719F52FE38DE093E02150BC
:10102E0080409040E1F700C000008091D80190917F
:10103E00D901019729F41092D9011092D80106C056
:10104E0081E090E09093D9018093D8012FE38DE059
:10105E0093E0215080409040E1F700C000009F9146
:0E106E008F912F910F900FBE0F901F9018952D
:10107C000F931F93CF93DF938C011092D301109297
:10108C00D201C0E0D0E018C0C830D10511F4C0E0E6
:10109C00D0E0CE010E94D9068BE792E90197F1F7D7
:1010AC0000C0000021968091D2019091D30101964D
:1010BC009093D3018093D2018091D2019091D3016E
:1010CC008017910708F3DF91CF911F910F9108952D
:1010DC000F931F93CF93DF938C011092D301109237
:1010EC00D201C0E0D0E018C0C830D10511F4C0E086
:1010FC00D0E0CE010E9450078BE792E90197F1F7FF
:10110C0000C0000021968091D2019091D3010196EC
:10111C009093D3018093D2018091D2019091D3010D
:10112C008017910708F3DF91CF911F910F910895CC
:10113C0097FB072E16F4009407D077FD09D00E9478
:10114C00B20807FC05D03EF4909581959F4F089509
:08115C00709561957F4F089525
:10116400AA1BBB1B51E107C0AA1FBB1FA617B707C9
:1011740010F0A61BB70B881F991F5A95A9F78095E5
:081184009095BC01CD01089516
:10118C009093C5008093C40088E18093C1008EE0E9
:06119C008093C2000895DB
:1011A200EC010E94F2080E94F108CE010E94F308AD
:0611B200CE010E94EF08CF
:1011B800E9E6F0E080818A6080838DB383608DBB2F
:0411C800789408957A
:0E11CC009091C00095FFFCCF8093C60008955F
:0411DA000C94000071
:0411DE000E94680003
:0211E20008956E
:0211E40008956C
:0211E60008956A
:1011E80001000000000000000100000001000000F4
:1011F80000000000010000000000010001000000E4
:1012080000000100000000000000010000000100D3
:1012180000000000000001000100000000000100C3
:101228004D6F646F204C696272653A204465736142
:091238006374697661646F0A00B9
:101241004D6F646F204C696272653A204163746925
:061251007661646F0A00E3
:10125700446962756A6F207465726D696E61646F47
:021267000A007B
:0F126900353A204D6F646F204C696272650A0040
:0E127800446962756A616E646F2E2E2E0A0044
:0D128600343A20446962756A6F20340A0012
:0D129300333A20446962756A6F20330A0007
:0D12A000323A20446962756A6F20320A00FC
:0D12AD00313A20446962756A6F20310A00F1
:0212BA00010031
:00000001FF
